:020000040000FA
:020000000828CE
:080008008B100130AF06090066
:1000100036218B170B16282128202F1C1028142876
:10002000071C77289A280D287420881688158814AC
:10003000881708120811081008134C21881288111B
:100040008810881308160815081408174C210D2865
:10005000C620DA20EE200221A7012308A7002408E9
:10006000A7072508A7072608A707562027080A3C40
:10007000031C3B284D282308013A031DA303240831
:10008000013A031DA4032508013A031DA503260810
:10009000013A031DA60356202C282308A800240893
:1000A000A9002508AA002608AB0008002308303E56
:1000B00099001B212408303E99001B212508303E61
:1000C00099001B212608303E99001B212708303E4D
:1000D00099001B210D3099001B2108000C3086006F
:1000E0000800B63086000800F230860008006E2056
:1000F0008801881288158814881708162808C120D6
:100100000812881688118814881708152908C12034
:100110000811881688158810881708142A08C12025
:100120000810881688158814881308172B08C12012
:1001300008130D28712088018812881588108817E7
:10014000081608142808AC0028082A02031CAA284C
:100150002A08AC002C08C120081208108816881143
:1001600088148813081508172908AD0029082B02E0
:10017000031CBC282B08AD002D08C1200811081352
:100180000D28AE004C21AE0BC228080041309F0064
:1001900016211F151F19CA281E08A3000310A30C3F
:1001A0000310A30C0310A30C0310A30C0310A30C47
:1001B000A30A080049309F0016211F151F19DE28C9
:1001C0001E08A4000310A40C0310A40C0310A40C1C
:1001D0000310A40C0310A40CA40A080051309F00C3
:1001E00016211F151F19F2281E08A5000310A50CC3
:1001F0000310A50C0310A50C0310A50C0310A50CEF
:10020000A50A080059309F0016211F151F1906293D
:100210001E08A6000310A60C0310A60C0310A60CC3
:100220000310A60C0310A60CA60A08000530A000B7
:10023000A00B182908000130A2006130A100213074
:10024000A000A00B2129A10B1F29A20B1D2908002A
:100250008316871707138C162430980019309900DD
:100260008312903098000B178B17080085018601C8
:10027000870188018901831602309F0007309C00A6
:100280000F30850001308600013087000030880083
:1002900000308900831208002E30A200BD30A1007A
:1002A0002530A000A00B5229A10B5029A20B4E29EA
:0202B000080044
:00000001FF
